{
  "_format": "hh-sol-artifact-1",
  "contractName": "IssueEscrow",
  "sourceName": "contracts/IssueEscrow.sol",
  "abi": [
    {
      "inputs": [],
      "stateMutability": "nonpayable",
      "type": "constructor"
    },
    {
      "anonymous": false,
      "inputs": [
        {
          "indexed": false,
          "internalType": "string",
          "name": "owner",
          "type": "string"
        },
        {
          "indexed": false,
          "internalType": "string",
          "name": "repository",
          "type": "string"
        },
        {
          "indexed": false,
          "internalType": "uint16",
          "name": "number",
          "type": "uint16"
        },
        {
          "indexed": false,
          "internalType": "uint256",
          "name": "amount",
          "type": "uint256"
        }
      ],
      "name": "IssueFunded",
      "type": "event"
    },
    {
      "inputs": [],
      "name": "escrowAgent",
      "outputs": [
        {
          "internalType": "address",
          "name": "",
          "type": "address"
        }
      ],
      "stateMutability": "view",
      "type": "function"
    },
    {
      "inputs": [
        {
          "internalType": "string",
          "name": "owner",
          "type": "string"
        },
        {
          "internalType": "string",
          "name": "repository",
          "type": "string"
        },
        {
          "internalType": "uint16",
          "name": "number",
          "type": "uint16"
        },
        {
          "internalType": "uint256",
          "name": "amount",
          "type": "uint256"
        }
      ],
      "name": "fundIssue",
      "outputs": [],
      "stateMutability": "nonpayable",
      "type": "function"
    },
    {
      "inputs": [],
      "name": "fundingCurrencyAddress",
      "outputs": [
        {
          "internalType": "address",
          "name": "",
          "type": "address"
        }
      ],
      "stateMutability": "view",
      "type": "function"
    },
    {
      "inputs": [],
      "name": "getEscrowAgent",
      "outputs": [
        {
          "internalType": "address",
          "name": "",
          "type": "address"
        }
      ],
      "stateMutability": "view",
      "type": "function"
    },
    {
      "inputs": [
        {
          "internalType": "string",
          "name": "owner",
          "type": "string"
        },
        {
          "internalType": "string",
          "name": "repository",
          "type": "string"
        },
        {
          "internalType": "uint16",
          "name": "number",
          "type": "uint16"
        }
      ],
      "name": "getIssueFundingAmount",
      "outputs": [
        {
          "internalType": "uint256",
          "name": "",
          "type": "uint256"
        }
      ],
      "stateMutability": "view",
      "type": "function"
    },
    {
      "inputs": [
        {
          "internalType": "string",
          "name": "",
          "type": "string"
        }
      ],
      "name": "issuesFunding",
      "outputs": [
        {
          "internalType": "uint256",
          "name": "",
          "type": "uint256"
        }
      ],
      "stateMutability": "view",
      "type": "function"
    },
    {
      "inputs": [
        {
          "internalType": "string",
          "name": "owner",
          "type": "string"
        },
        {
          "internalType": "string",
          "name": "repository",
          "type": "string"
        },
        {
          "internalType": "uint16",
          "name": "number",
          "type": "uint16"
        },
        {
          "internalType": "address",
          "name": "repoMaintainerAddress",
          "type": "address"
        }
      ],
      "name": "sendToContributor",
      "outputs": [],
      "stateMutability": "nonpayable",
      "type": "function"
    },
    {
      "inputs": [
        {
          "internalType": "address",
          "name": "_fundingCurrencyAddress",
          "type": "address"
        }
      ],
      "name": "setFundingCurrencyAddress",
      "outputs": [],
      "stateMutability": "nonpayable",
      "type": "function"
    }
  ],
  "bytecode": "0x608060405234801561001057600080fd5b50336000806101000a81548173ffffffffffffffffffffffffffffffffffffffff021916908373ffffffffffffffffffffffffffffffffffffffff16021790555073a0b86991c6218b36c1d19d4a2e9eb0ce3606eb48600160006101000a81548173ffffffffffffffffffffffffffffffffffffffff021916908373ffffffffffffffffffffffffffffffffffffffff160217905550611626806100b56000396000f3fe608060405234801561001057600080fd5b50600436106100885760003560e01c8063b6e0db981161005b578063b6e0db9814610113578063d217813e14610131578063e1f6c0981461014d578063ebe589581461016b57610088565b8063074c76771461008d578063078f4ad5146100a957806348467131146100c757806376875161146100f7575b600080fd5b6100a760048036038101906100a29190610abb565b61019b565b005b6100b16102fe565b6040516100be9190610af7565b60405180910390f35b6100e160048036038101906100dc9190610c58565b610324565b6040516100ee9190610cba565b60405180910390f35b610111600480360381019061010c9190610d3b565b610352565b005b61011b610553565b6040516101289190610af7565b60405180910390f35b61014b60048036038101906101469190610dda565b61057c565b005b610155610790565b6040516101629190610af7565b60405180910390f35b61018560048036038101906101809190610e79565b6107b4565b6040516101929190610cba565b60405180910390f35b60008054906101000a900473ffffffffffffffffffffffffffffffffffffffff1673ffffffffffffffffffffffffffffffffffffffff163373ffffffffffffffffffffffffffffffffffffffff1614610229576040517f08c379a000000000000000000000000000000000000000000000000000000000815260040161022090610f87565b60405180910390fd5b600073ffffffffffffffffffffffffffffffffffffffff16600160009054906101000a900473ffffffffffffffffffffffffffffffffffffffff1673ffffffffffffffffffffffffffffffffffffffff16036102ba576040517f08c379a00000000000000000000000000000000000000000000000000000000081526004016102b190611019565b60405180910390fd5b80600160006101000a81548173ffffffffffffffffffffffffffffffffffffffff021916908373ffffffffffffffffffffffffffffffffffffffff16021790555050565b600160009054906101000a900473ffffffffffffffffffffffffffffffffffffffff1681565b6002818051602081018201805184825260208301602085012081835280955050505050506000915090505481565b60008103610395576040517f08c379a000000000000000000000000000000000000000000000000000000000815260040161038c90611085565b60405180910390fd5b60006103a28585856107ed565b90506000600160009054906101000a900473ffffffffffffffffffffffffffffffffffffffff1690508073ffffffffffffffffffffffffffffffffffffffff166323b872dd3330866040518463ffffffff1660e01b8152600401610408939291906110a5565b6020604051808303816000875af1158015610427573d6000803e3d6000fd5b505050506040513d601f19601f8201168201806040525081019061044b9190611114565b600160009054906101000a900473ffffffffffffffffffffffffffffffffffffffff1661047785610828565b6040516020016104889291906112b8565b604051602081830303815290604052906104d8576040517f08c379a00000000000000000000000000000000000000000000000000000000081526004016104cf919061132f565b60405180910390fd5b50826002836040516104ea9190611351565b908152602001604051809103902060008282546105079190611397565b925050819055507fd6b8d741a442ce116d4e42162a79823642ffbafb10208abd938b4dbf395169738686868660405161054394939291906113da565b60405180910390a1505050505050565b60008060009054906101000a900473ffffffffffffffffffffffffffffffffffffffff16905090565b60008054906101000a900473ffffffffffffffffffffffffffffffffffffffff1673ffffffffffffffffffffffffffffffffffffffff163373ffffffffffffffffffffffffffffffffffffffff161461060a576040517f08c379a000000000000000000000000000000000000000000000000000000000815260040161060190610f87565b60405180910390fd5b60006106178585856107ed565b9050600060028260405161062b9190611351565b90815260200160405180910390205490506000811161067f576040517f08c379a000000000000000000000000000000000000000000000000000000000815260040161067690611479565b60405180910390fd5b6000600160009054906101000a900473ffffffffffffffffffffffffffffffffffffffff1690508073ffffffffffffffffffffffffffffffffffffffff1663a9059cbb85846040518363ffffffff1660e01b81526004016106e1929190611499565b6020604051808303816000875af1158015610700573d6000803e3d6000fd5b505050506040513d601f19601f820116820180604052508101906107249190611114565b610763576040517f08c379a000000000000000000000000000000000000000000000000000000000815260040161075a9061150e565b60405180910390fd5b60006002846040516107759190611351565b90815260200160405180910390208190555050505050505050565b60008054906101000a900473ffffffffffffffffffffffffffffffffffffffff1681565b6000806107c28585856107ed565b90506002816040516107d49190611351565b9081526020016040518091039020549150509392505050565b606083836107fe8461ffff16610828565b6040516020016108109392919061157a565b60405160208183030381529060405290509392505050565b606060006001610837846108f6565b01905060008167ffffffffffffffff81111561085657610855610b2d565b5b6040519080825280601f01601f1916602001820160405280156108885781602001600182028036833780820191505090505b509050600082602001820190505b6001156108eb578080600190039150507f3031323334353637383961626364656600000000000000000000000000000000600a86061a8153600a85816108df576108de6115c1565b5b04945060008503610896575b819350505050919050565b600080600090507a184f03e93ff9f4daa797ed6e38ed64bf6a1f0100000000000000008310610954577a184f03e93ff9f4daa797ed6e38ed64bf6a1f010000000000000000838161094a576109496115c1565b5b0492506040810190505b6d04ee2d6d415b85acef81000000008310610991576d04ee2d6d415b85acef81000000008381610987576109866115c1565b5b0492506020810190505b662386f26fc1000083106109c057662386f26fc1000083816109b6576109b56115c1565b5b0492506010810190505b6305f5e10083106109e9576305f5e10083816109df576109de6115c1565b5b0492506008810190505b6127108310610a0e576127108381610a0457610a036115c1565b5b0492506004810190505b60648310610a315760648381610a2757610a266115c1565b5b0492506002810190505b600a8310610a40576001810190505b80915050919050565b6000604051905090565b600080fd5b600080fd5b600073ffffffffffffffffffffffffffffffffffffffff82169050919050565b6000610a8882610a5d565b9050919050565b610a9881610a7d565b8114610aa357600080fd5b50565b600081359050610ab581610a8f565b92915050565b600060208284031215610ad157610ad0610a53565b5b6000610adf84828501610aa6565b91505092915050565b610af181610a7d565b82525050565b6000602082019050610b0c6000830184610ae8565b92915050565b600080fd5b600080fd5b6000601f19601f8301169050919050565b7f4e487b7100000000000000000000000000000000000000000000000000000000600052604160045260246000fd5b610b6582610b1c565b810181811067ffffffffffffffff82111715610b8457610b83610b2d565b5b80604052505050565b6000610b97610a49565b9050610ba38282610b5c565b919050565b600067ffffffffffffffff821115610bc357610bc2610b2d565b5b610bcc82610b1c565b9050602081019050919050565b82818337600083830152505050565b6000610bfb610bf684610ba8565b610b8d565b905082815260208101848484011115610c1757610c16610b17565b5b610c22848285610bd9565b509392505050565b600082601f830112610c3f57610c3e610b12565b5b8135610c4f848260208601610be8565b91505092915050565b600060208284031215610c6e57610c6d610a53565b5b600082013567ffffffffffffffff811115610c8c57610c8b610a58565b5b610c9884828501610c2a565b91505092915050565b6000819050919050565b610cb481610ca1565b82525050565b6000602082019050610ccf6000830184610cab565b92915050565b600061ffff82169050919050565b610cec81610cd5565b8114610cf757600080fd5b50565b600081359050610d0981610ce3565b92915050565b610d1881610ca1565b8114610d2357600080fd5b50565b600081359050610d3581610d0f565b92915050565b60008060008060808587031215610d5557610d54610a53565b5b600085013567ffffffffffffffff811115610d7357610d72610a58565b5b610d7f87828801610c2a565b945050602085013567ffffffffffffffff811115610da057610d9f610a58565b5b610dac87828801610c2a565b9350506040610dbd87828801610cfa565b9250506060610dce87828801610d26565b91505092959194509250565b60008060008060808587031215610df457610df3610a53565b5b600085013567ffffffffffffffff811115610e1257610e11610a58565b5b610e1e87828801610c2a565b945050602085013567ffffffffffffffff811115610e3f57610e3e610a58565b5b610e4b87828801610c2a565b9350506040610e5c87828801610cfa565b9250506060610e6d87828801610aa6565b91505092959194509250565b600080600060608486031215610e9257610e91610a53565b5b600084013567ffffffffffffffff811115610eb057610eaf610a58565b5b610ebc86828701610c2a565b935050602084013567ffffffffffffffff811115610edd57610edc610a58565b5b610ee986828701610c2a565b9250506040610efa86828701610cfa565b9150509250925092565b600082825260208201905092915050565b7f4f6e6c792074686520657363726f77206167656e742063616e20706572666f7260008201527f6d207468697320616374696f6e00000000000000000000000000000000000000602082015250565b6000610f71602d83610f04565b9150610f7c82610f15565b604082019050919050565b60006020820190508181036000830152610fa081610f64565b9050919050565b7f5468652066756e64696e672063757272656e637920616464726573732063616e60008201527f6e6f7420626520746865207a65726f2061646472657373000000000000000000602082015250565b6000611003603783610f04565b915061100e82610fa7565b604082019050919050565b6000602082019050818103600083015261103281610ff6565b9050919050565b7f546f6b656e20616d6f756e742063616e6e6f7420626520300000000000000000600082015250565b600061106f601883610f04565b915061107a82611039565b602082019050919050565b6000602082019050818103600083015261109e81611062565b9050919050565b60006060820190506110ba6000830186610ae8565b6110c76020830185610ae8565b6110d46040830184610cab565b949350505050565b60008115159050919050565b6110f1816110dc565b81146110fc57600080fd5b50565b60008151905061110e816110e8565b92915050565b60006020828403121561112a57611129610a53565b5b6000611138848285016110ff565b91505092915050565b600081905092915050565b7f5472616e73666572206f66207468652066756e64696e6720616d6f756e74206660008201527f61696c65642e20416464726573733a2000000000000000000000000000000000602082015250565b60006111a8603083611141565b91506111b38261114c565b603082019050919050565b60008160601b9050919050565b60006111d6826111be565b9050919050565b60006111e8826111cb565b9050919050565b6112006111fb82610a7d565b6111dd565b82525050565b7f2c20416d6f756e743a2000000000000000000000000000000000000000000000600082015250565b600061123c600a83611141565b915061124782611206565b600a82019050919050565b600081519050919050565b60005b8381101561127b578082015181840152602081019050611260565b60008484015250505050565b600061129282611252565b61129c8185611141565b93506112ac81856020860161125d565b80840191505092915050565b60006112c38261119b565b91506112cf82856111ef565b6014820191506112de8261122f565b91506112ea8284611287565b91508190509392505050565b600061130182611252565b61130b8185610f04565b935061131b81856020860161125d565b61132481610b1c565b840191505092915050565b6000602082019050818103600083015261134981846112f6565b905092915050565b600061135d8284611287565b915081905092915050565b7f4e487b7100000000000000000000000000000000000000000000000000000000600052601160045260246000fd5b60006113a282610ca1565b91506113ad83610ca1565b92508282019050808211156113c5576113c4611368565b5b92915050565b6113d481610cd5565b82525050565b600060808201905081810360008301526113f481876112f6565b9050818103602083015261140881866112f6565b905061141760408301856113cb565b6114246060830184610cab565b95945050505050565b7f4e6f2066756e647320746f2073656e6400000000000000000000000000000000600082015250565b6000611463601083610f04565b915061146e8261142d565b602082019050919050565b6000602082019050818103600083015261149281611456565b9050919050565b60006040820190506114ae6000830185610ae8565b6114bb6020830184610cab565b9392505050565b7f5472616e73666572206f662055534443206661696c6564000000000000000000600082015250565b60006114f8601783610f04565b9150611503826114c2565b602082019050919050565b60006020820190508181036000830152611527816114eb565b9050919050565b7f2f00000000000000000000000000000000000000000000000000000000000000600082015250565b6000611564600183611141565b915061156f8261152e565b600182019050919050565b60006115868286611287565b915061159182611557565b915061159d8285611287565b91506115a882611557565b91506115b48284611287565b9150819050949350505050565b7f4e487b7100000000000000000000000000000000000000000000000000000000600052601260045260246000fdfea26469706673582212208e942d723396617fa4276803aa500c46f4edff408193843985dbe76229140ed564736f6c63430008180033",
  "linkReferences": {},
  "deployedLinkReferences": {}
}